:020000040800F2
:1000000000000320B9280008092900080929000870
:100010000929000809290008092900080000000032
:100020000000000000000000000000000929000896
:100030000929000800000000092900083D280008DF
:1000400009290008092900080929000809290008C8
:1000500009290008092900080929000809290008B8
:1000600009290008092900080929000809290008A8
:100070000929000809290008092900080929000898
:100080000929000809290008092900080929000888
:100090000929000809290008092900080929000878
:1000A0000929000809290008092900080929000868
:1000B0000929000809290008092900080929000858
:1000C0000929000809290008092900080929000848
:1000D0000929000809290008092900080929000838
:1000E0000929000809290008092900080929000828
:1000F0000929000809290008092900080929000818
:100100000929000809290008092900080929000807
:1001100009290008092900080929000809290008F7
:1001200009290008092900080929000809290008E7
:1001300009290008092900080929000809290008D7
:1001400009290008092900080929000809290008C7
:1001500009290008092900080929000809290008B7
:1001600009290008092900080929000809290008A7
:1001700009290008092900080929000800000000D1
:100180000929000809290008092900080929000887
:100190000929000809290008092900080929000877
:0C01A000092900080929000809290008A5
:1001B00008B50548054B1B1A062B00D808BD044B93
:1001C000002BFBD09847F9E7A0000020A3000020F7
:1001D0000000000008B50748074B1B1A9B1003EBF3
:1001E000D373591000D108BD044A002AFBD09047B0
:1001F000F9E700BFA0000020A000002000000000E0
:1002000010B5064C237843B9FFF7D2FF044B13B166
:100210000448AFF300800123237010BDA00000202C
:10022000000000004C53000808B5074B1BB10748FD
:100230000749AFF300800748036813B1064B03B1C9
:100240009847BDE80840C5E7000000004C5300088F
:10025000A4000020A00000200000000081F0004168
:1002600002E000BF83F0004330B54FEA41044FEA9B
:10027000430594EA050F08BF90EA020F1FBF54EA36
:10028000000C55EA020C7FEA645C7FEA655C00F0D2
:10029000E2804FEA5454D4EB5555B8BF6D420CDDA3
:1002A0002C4480EA020281EA030382EA000083EA26
:1002B000010180EA020281EA0303362D88BF30BDC6
:1002C00011F0004F4FEA01314FF4801C4CEA11311C
:1002D00002D0404261EB410113F0004F4FEA03337B
:1002E0004CEA133302D0524263EB430394EA050F06
:1002F00000F0A780A4F10104D5F1200E0DDB02FA75
:100300000EFC22FA05F2801841F1000103FA0EF208
:10031000801843FA05F359410EE0A5F120050EF1CE
:10032000200E012A03FA0EFC28BF4CF0020C43FAFF
:1003300005F3C01851EBE37101F0004507D54FF00C
:10034000000EDCF1000C7EEB00006EEB0101B1F55C
:10035000801F1BD3B1F5001F0CD349085FEA3000A2
:100360004FEA3C0C04F101044FEA445212F5800FAD
:1003700080F09A80BCF1004F08BF5FEA500C50F14A
:10038000000041EB045141EA050130BD5FEA4C0C2D
:10039000404141EB010111F4801FA4F10104E9D1B6
:1003A00091F0000F04BF01460020B1FA81F308BFAD
:1003B0002033A3F10B03B3F120020CDA0C3208DD79
:1003C00002F1140CC2F10C0201FA0CF021FA02F154
:1003D0000CE002F11402D8BFC2F1200C01FA02F1C4
:1003E00020FA0CFCDCBF41EA0C019040E41AA2BFE9
:1003F00001EB0451294330BD6FEA04041F3C1CDAB1
:100400000C340EDC04F11404C4F1200220FA04F0D0
:1004100001FA02F340EA030021FA04F345EA03017A
:1004200030BDC4F10C04C4F1200220FA02F001FA3C
:1004300004F340EA0300294630BD21FA04F02946BE
:1004400030BD94F0000F83F4801306BF81F4801157
:100450000134013D4EE77FEA645C18BF7FEA655CCA
:1004600029D094EA050F08BF90EA020F05D054EA9C
:10047000000C04BF1946104630BD91EA030F1EBFA1
:100480000021002030BD5FEA545C05D140004941A5
:1004900028BF41F0004130BD14F580043CBF01F598
:1004A000801130BD01F0004545F0FE4141F470017E
:1004B0004FF0000030BD7FEA645C1ABF1946104659
:1004C0007FEA655C1CBF0B46024650EA013406BF5A
:1004D00052EA033591EA030F41F4002130BD00BF19
:1004E00090F0000F04BF0021704730B54FF48064D6
:1004F00004F132044FF000054FF0000150E700BF57
:1005000090F0000F04BF0021704730B54FF48064B5
:1005100004F1320410F0004548BF40424FF00001A2
:100520003EE700BF42004FEAE2014FEA31014FEAE5
:1005300002701FBF12F07F4393F07F4F81F0605134
:10054000704792F0000F14BF93F07F4F704730B5A3
:100550004FF4607401F0004521F0004120E700BF36
:1005600050EA010208BF704730B54FF000050AE0BD
:1005700050EA010208BF704730B511F0004502D5BE
:10058000404261EB41014FF4806404F132045FEAC0
:10059000915C3FF4DCAE4FF003025FEADC0C18BF65
:1005A00003325FEADC0C18BF033202EBDC02C2F15B
:1005B000200300FA03FC20FA02F001FA03FE40EAED
:1005C0000E0021FA02F11444C1E600BF70B54FF0ED
:1005D000FF0C4CF4E06C1CEA11541DBF1CEA1355CF
:1005E00094EA0C0F95EA0C0F00F0DEF82C4481EA37
:1005F000030621EA4C5123EA4C5350EA013518BF57
:1006000052EA033541F4801143F4801338D0A0FB43
:1006100002CE4FF00005E1FB02E506F00042E0FBF0
:1006200003E54FF00006E1FB03569CF0000F18BFF6
:100630004EF0010EA4F1FF04B6F5007F64F540749E
:1006400004D25FEA4E0E6D4146EB060642EAC62131
:1006500041EA55514FEAC52040EA5E504FEACE2E9E
:10066000B4F1FD0C88BFBCF5E06F1ED8BEF1004FA1
:1006700008BF5FEA500E50F1000041EB045170BD1D
:1006800006F0004646EA010140EA020081EA030161
:10069000B4EB5C04C2BFD4EB0C0541EA045170BD5D
:1006A00041F480114FF0000E013C00F3AB8014F1D7
:1006B000360FDEBF002001F0004170BDC4F1000420
:1006C000203C35DA0C341BDC04F11404C4F12005A1
:1006D00000FA05F320FA04F001FA05F240EA0200FC
:1006E00001F0004221F0004110EBD37021FA04F632
:1006F00042EB06015EEA430E08BF20EAD37070BDEC
:10070000C4F10C04C4F1200500FA04F320FA05F04A
:1007100001FA04F240EA020001F0004110EBD3704C
:1007200041F100015EEA430E08BF20EAD37070BDBC
:10073000C4F1200500FA05F24EEA020E20FA04F395
:1007400001FA05F243EA020321FA04F001F0004144
:1007500021FA04F220EA020000EBD3705EEA430EB5
:1007600008BF20EAD37070BD94F0000F0FD101F0E4
:100770000046400041EB010111F4801F08BF013C1D
:10078000F7D041EA060195F0000F18BF704703F05B
:100790000046520043EB030313F4801F08BF013DE2
:1007A000F7D043EA0603704794EA0C0F0CEA13559E
:1007B00018BF95EA0C0F0CD050EA410618BF52EA58
:1007C0004306D1D181EA030101F000414FF000005E
:1007D00070BD50EA410606BF1046194652EA43066C
:1007E00019D094EA0C0F02D150EA013613D195EAE0
:1007F0000C0F05D152EA03361CBF104619460AD128
:1008000081EA030101F0004141F0FE4141F4700131
:100810004FF0000070BD41F0FE4141F4780170BD21
:1008200070B54FF0FF0C4CF4E06C1CEA11541DBF86
:100830001CEA135594EA0C0F95EA0C0F00F0A7F888
:10084000A4EB050481EA030E52EA03354FEA0131B5
:1008500000F088804FEA03334FF0805545EA1313C8
:1008600043EA12634FEA022245EA111545EA106590
:100870004FEA00260EF000419D4208BF964244F127
:10088000FD0404F5407402D25B084FEA3202B61A46
:1008900065EB03055B084FEA32024FF480104FF41A
:1008A000002CB6EB020E75EB030E22BFB61A75468E
:1008B00040EA0C005B084FEA3202B6EB020E75EB21
:1008C000030E22BFB61A754640EA5C005B084FEA89
:1008D0003202B6EB020E75EB030E22BFB61A754656
:1008E00040EA9C005B084FEA3202B6EB020E75EB61
:1008F000030E22BFB61A754640EADC0055EA060E22
:1009000018D04FEA051545EA16754FEA06164FEA64
:10091000C30343EA52734FEAC2025FEA1C1CC0D110
:1009200011F4801F0BD141EA00014FF000004FF09D
:10093000004CB6E711F4801F04BF01430020B4F15E
:10094000FD0C88BFBCF5E06F3FF6AFAEB5EB030C16
:1009500004BFB6EB020C5FEA500C50F1000041EB13
:10096000045170BD0EF0004E4EEA113114EB5C04E0
:10097000C2BFD4EB0C0541EA045170BD41F48011B3
:100980004FF0000E013C90E645EA060E8DE60CEABB
:10099000135594EA0C0F08BF95EA0C0F3FF43BAFD8
:1009A00094EA0C0F0AD150EA01347FF434AF95EA8F
:1009B0000C0F7FF425AF104619462CE795EA0C0F73
:1009C00006D152EA03353FF4FDAE1046194622E740
:1009D00050EA410618BF52EA43067FF4C5AE50EA1A
:1009E00041047FF40DAF52EA43057FF4EBAE12E70A
:1009F0004FF0FF3C06E000BF4FF0010C02E000BFEB
:100A00004FF0010C4DF804CD4FEA410C7FEA6C5CCD
:100A10004FEA430C18BF7FEA6C5C1BD001B050EA70
:100A2000410C0CBF52EA430C91EA030F02BF90EA5B
:100A3000020F0020704710F1000F91EA030F58BF1A
:100A4000994208BF90422CBFD8176FEAE37040F07C
:100A5000010070474FEA410C7FEA6C5C02D150EA1A
:100A6000013C07D14FEA430C7FEA6C5CD6D152EAD5
:100A7000033CD3D05DF8040B704700BF844610469A
:100A800062468C461946634600E000BF01B5FFF799
:100A9000B7FF002848BF10F1000F01BD4DF808ED69
:100AA000FFF7F4FF0CBF012000205DF808FB00BF3A
:100AB0004DF808EDFFF7EAFF34BF012000205DF894
:100AC00008FB00BF4DF808EDFFF7E0FF94BF0120E1
:100AD00000205DF808FB00BF4DF808EDFFF7CEFFE2
:100AE00094BF012000205DF808FB00BF4DF808ED21
:100AF000FFF7C4FF34BF012000205DF808FB00BFF2
:100B00004FEA410212F5001215D211D56FF4787335
:100B1000B3EB625212D94FEAC12343F0004343EAD8
:100B2000505311F0004F23FA02F018BF40427047B3
:100B30004FF00000704750EA013005D111F000403D
:100B400008BF6FF0004070474FF00000704700BFD3
:100B500080B500AF0E4B0E4A126842F400721A6064
:100B60000B4B0B4A126842F480621A60084B084A29
:100B7000126842F480721A60032000F007F9002026
:100B800000F008F801F00CFE0023184680BD00BFFD
:100B9000003C024080B582B000AF786001F048FCB4
:100BA0000246094BA3FB02139B09184600F014F9F7
:100BB0004FF0FF307968002200F0F2F80023184669
:100BC0000837BD4680BD00BFD34D621080B400AF72
:100BD000044B1B685A1C034B1A60BD465DF8047B2E
:100BE000704700BFBC00002080B400AF034B1B68FF
:100BF0001846BD465DF8047B704700BFBC0000206E
:100C000080B584B000AF78600023FB60FFF7ECFF95
:100C1000F86000BFFFF7E8FF0246FB68D21A7B6866
:100C20009A42F7D31037BD4680BD00BF80B485B06F
:100C300000AF78607B6803F00703FB600C4BDB6858
:100C4000BB60BA684FF6FF031340BB60FB681A0233
:100C5000BB68134343F0BF6343F40033BB60044BF2
:100C6000BA68DA601437BD465DF8047B704700BF90
:100C700000ED00E080B400AF044BDB6803F4E063F8
:100C80001B0A1846BD465DF8047B704700ED00E086
:100C900080B483B000AF03463960FB7197F9073029
:100CA000002B0BDA0D49FB7903F00F03043B3A6884
:100CB000D2B21201D2B20B441A7609E0084997F970
:100CC00007303A68D2B21201D2B20B4483F8002343
:100CD0000C37BD465DF8047B704700BF00ED00E0B7
:100CE00000E100E080B489B000AFF860B9607A60DC
:100CF000FB6803F00703FB61FB69C3F10703042BE7
:100D000028BF0423BB61FB690433062B02D9FB69AE
:100D1000033B00E000237B61BB69012202FA03F37D
:100D20005A1EBB681A407B699A407B69012101FA0F
:100D300003F3591E7B680B40134318462437BD4606
:100D40005DF8047B704700BF80B582B000AF78606B
:100D50007B68013BB3F1807F01D301230FE00A4B95
:100D60007A68013A5A604FF0FF300F21FFF790FF89
:100D7000054B00229A60044B07221A600023184694
:100D80000837BD4680BD00BF10E000E080B582B0EE
:100D900000AF78607868FFF749FF0837BD4680BD2F
:100DA00080B586B000AF0346B9607A60FB7300235C
:100DB0007B61FFF75FFF78617869B9687A68FFF750
:100DC00091FF034697F90F2010461946FFF760FF81
:100DD0001837BD4680BD00BF80B582B000AF7860D7
:100DE0007868FFF7B1FF034618460837BD4680BD57
:100DF00080B483B000AF78607B68042B06D1094BC8
:100E0000084A126842F004021A6005E0054B054AE0
:100E1000126822F004021A600C37BD465DF8047BAC
:100E2000704700BF10E000E080B500AF00F002F8AE
:100E300080BD00BF80B400AFBD465DF8047B704745
:100E400080B489B000AF7860396000237B610023F3
:100E50003B610023BB610023FB6175E1FB6901225B
:100E600002FA03F37B613B681A687B6913403B61BC
:100E70003A697B699A4240F064813B685B68022B67
:100E800003D03B685B68122B23D1FB69DA087B68CF
:100E9000083253F82230BB61FB6903F007039B0063
:100EA0000F2202FA03F3DB43BA691340BB613B68CC
:100EB0001A69FB6903F007039B0002FA03F3BA699E
:100EC0001343BB61FB69DA087B680832B96943F8F0
:100ED00022107B681B68BB61FB695B00032202FA7E
:100EE00003F3DB43BA691340BB613B685B6803F003
:100EF0000302FB695B0002FA03F3BA691343BB61A7
:100F00007B68BA691A603B685B68012B0BD03B6851
:100F10005B68022B07D03B685B68112B03D03B68F2
:100F20005B68122B30D17B689B68BB61FB695B00FF
:100F3000032202FA03F3DB43BA691340BB613B6847
:100F4000DA68FB695B0002FA03F3BA691343BB6119
:100F50007B68BA699A607B685B68BB61FB69012248
:100F600002FA03F3DB43BA691340BB613B685B6879
:100F700003F010031A09FB6902FA03F3BA69134379
:100F8000BB617B68BA695A607B68DB68BB61FB69DF
:100F90005B00032202FA03F3DB43BA691340BB612F
:100FA0003B689A68FB695B0002FA03F3BA69134372
:100FB000BB617B68BA69DA603B685B6803F08053A9
:100FC000002B00F0BE80654B644A526C42F48042B4
:100FD0005A64624B5B6C03F48043FB60FB68604BBC
:100FE000FA699208023253F82230BB61FB6903F0C0
:100FF00003039B000F2202FA03F3DB43BA69134099
:10100000BB617A68574B9A4237D07A68564B9A42FE
:1010100031D07A68554B9A422BD07A68544B9A4219
:1010200025D07A68534B9A421FD07A68524B9A4225
:1010300019D07A68514B9A4213D07A68504B9A4231
:101040000DD07A684F4B9A4207D07A684E4B9A423D
:1010500001D1092312E00A2310E008230EE0072340
:101060000CE006230AE0052308E0042306E003233E
:1010700004E0022302E0012300E00023FA6902F009
:10108000030292009340BA691343BB61344BFA697F
:1010900092080232B96943F822103C4B1B68BB61CD
:1010A0003B69DB43BA691340BB613B685B6803F48F
:1010B0008033002B03D0BA693B691343BB61334BC8
:1010C000BA691A60314B5B68BB613B69DB43BA6943
:1010D0001340BB613B685B6803F40033002B03D013
:1010E000BA693B691343BB61284BBA695A60274B05
:1010F0009B68BB613B69DB43BA691340BB613B68DA
:101100005B6803F48013002B03D0BA693B69134377
:10111000BB611E4BBA699A601C4BDB68BB613B69C3
:10112000DB43BA691340BB613B685B6803F400139F
:10113000002B03D0BA693B691343BB61134BBA69F7
:10114000DA60FB690133FB61FB690F2B7FF686AE2A
:101150002437BD465DF8047B704700BF003802406D
:101160000038014000000240000402400008024034
:10117000000C02400010024000140240001802401F
:10118000001C02400020024000240240003C0140BC
:1011900080B584B000AF78600023FB600023BB60A3
:1011A0007B68002B01D10123C1E07B6893F83530C7
:1011B000DBB2002B06D17B68002283F834207868EC
:1011C00001F0FAFA7B68022283F835207B681B68FD
:1011D0007A681268126822F001021A6001F04EF972
:1011E000B860BA68544BA3FB02039B0CFB607B689E
:1011F0001B68FA685A607B681A687B6859684F4BAD
:10120000994202D8FB68013309E0FB684FF49671FC
:1012100001FB03F14A4BA3FB01039B09013313625A
:101220007B6819687B685A68444B9A4212D87B687D
:101230005B685B00BA68B2FBF3F3C3F30B03032BE9
:1012400006D97B685B685B00BA68B2FBF3F345E0E4
:10125000042343E07B689B68002B0FD17B685A68AE
:1012600013465B001344BA68B2FBF3F3C3F30B03FA
:10127000002B14BF00230123DBB210E07B685A6807
:1012800013469B0013449A001344BA68B2FBF3F36D
:10129000C3F30B03002B14BF00230123DBB2002B8D
:1012A00001D001231AE07B689B68002B0AD17B6880
:1012B0005A6813465B001344BA68B2FBF3F343F475
:1012C00000430BE07B685A6813469B0013449A0066
:1012D0001344BA68B2FBF3F343F44043CB617B6839
:1012E0001B687A68D1697A68126A0A431A607B6857
:1012F0001B687A6811697A68D2680A439A607B68C9
:101300001B687A6851697A6892690A43DA607B6877
:101310001B687A681268126842F001021A607B68E2
:1013200000229A637B68012283F835200023184647
:101330001037BD4680BD00BF83DE1B43A086010081
:10134000D34D621080B586B000AFF8607A600A466F
:101350007A813B81FB6893F83530DBB2012B40F09A
:101360009A807B68002B02D03B89002B01D101239E
:1013700092E0F8684A49012242F2107300F010FB33
:101380000346002B01D0022386E0FB6893F834303B
:10139000012B01D102237FE0FB68012283F8342076
:1013A000FB681B68FA681268126822F400621A600F
:1013B000FB68122283F83520FB6800229A637B8940
:1013C000F86819463A6A00F0E7F90346002B0FD097
:1013D000FB689B6B042B05D1FB68002283F834204B
:1013E000012359E0FB68002283F83420032353E0F3
:1013F000FB681B685B697B61FB681B689B697B61A1
:101400007B6928E0F868274900223B6A00F0C8FAA7
:101410000346002B01D003233EE0FB681A687B687B
:10142000591C79601B7813613B89013B3B81FB6848
:101430001B685B6903F00403002B0CD03B89002B75
:1014400009D0FB681A687B68591C79601B781361A6
:101450003B89013B3B813B89002BD3D1F868114983
:1014600000223B6A00F09CFA0346002B01D00323C4
:1014700012E0FB681B68FA681268126842F4007296
:101480001A60FB68012283F83520FB68002283F88C
:101490003420002300E0022318461837BD4680BDE3
:1014A000020010008000010080B588B000AFF86035
:1014B0007A600A467A813B81FB6893F83530DBB26B
:1014C000012B40F064817B68002B02D03B89002B0C
:1014D00001D101235CE1F8689449012242F21073C2
:1014E00000F05EFA0346002B01D0022350E1FB68B6
:1014F00093F83430012B01D1022349E1FB6801222A
:1015000083F83420FB681B68FA681268126822F4BA
:1015100000621A60FB68222283F83520FB680022F3
:101520009A637B89F8681946BA6A00F097F903460E
:10153000002B0FD0FB689B6B042B05D1FB680022AE
:1015400083F83420012323E1FB68002283F8342050
:1015500003231DE13B89012B19D1FB681B68FA6845
:101560001268126822F480621A60FB681B685B696B
:10157000FB61FB681B689B69FB61FB69FB681B687F
:10158000FA681268126842F400721A602EE03B8911
:10159000022B19D1FB681B68FA681268126822F4E2
:1015A00080621A60FB681B68FA681268126842F46D
:1015B00000621A60FB681B685B69BB61FB681B68A3
:1015C0009B69BB61BB6911E0FB681B68FA68126824
:1015D000126842F480621A60FB681B685B697B6179
:1015E000FB681B689B697B617B69C2E0C1E03B894A
:1015F000032B00F28F803B89012B16D1F8684C49F0
:101600000022BB6A00F0CCF90346002B01D0032373
:10161000BEE07B685A1C7A60FA6812681269D2B21E
:101620001A703B89013B3B81A3E03B89022B29D106
:10163000F86840490022BB6A00F0B2F90346002B6B
:1016400001D00323A4E0FB681B68FA6812681268E3
:1016500042F400721A607B685A1C7A60FA68126859
:101660001269D2B21A703B89013B3B817B685A1CDC
:101670007A60FA6812681269D2B21A703B89013B2B
:101680003B8176E0F8682B490022BB6A00F088F9BC
:101690000346002B01D003237AE0FB681B68FA683D
:1016A0001268126822F480621A607B685A1C7A60A1
:1016B000FA6812681269D2B21A703B89013B3B8109
:1016C000F8681C490022BB6A00F06AF90346002B47
:1016D00001D003235CE0FB681B68FA68126812689B
:1016E00042F400721A607B685A1C7A60FA681268C9
:1016F0001269D2B21A703B89013B3B817B685A1C4C
:101700007A60FA6812681269D2B21A703B89013B9A
:101710003B812EE0F86806490022BB6A00F040F9E0
:101720000346002B08D0032332E000BF0200100064
:1017300040000100040001007B685A1C7A60FA68CE
:1017400012681269D2B21A703B89013B3B81FB6877
:101750001B685B6903F00403002B0AD07B685A1CEA
:101760007A60FA6812681269D2B21A703B89013B3A
:101770003B813B89002B7FF43AAFFB68012283F861
:101780003520FB68002283F83420002300E0022388
:1017900018462037BD4680BD80B584B000AFF860E4
:1017A0000B467A607B81FB681B68FA6812681268D6
:1017B00042F480721A60F8684FF0011100227B68D1
:1017C00000F0EEF80346002B01D003233DE0FB6858
:1017D0001B69B3F5804F07D1FB681B687A89D2B2C9
:1017E00002F0FE021A611FE0FB681B687A8902F4AE
:1017F0004072D211D2B262F00F02D2B21A61F8680E
:1018000014497A6800F056F90346002B07D0FB68AC
:101810009B6B042B01D1012317E0032315E0FB6828
:101820001B687A89D2B21A61F8680B497A6800F0AD
:1018300041F90346002B07D0FB689B6B042B01D1B9
:10184000012302E0032300E0002318461037BD46C1
:1018500080BD00BF080001000200010080B586B015
:1018600000AFF8600B467A607B81FB681B68FA6802
:101870001268126842F480621A60FB681B68FA689A
:101880001268126842F480721A60F8684FF0011111
:1018900000227B6800F084F80346002B01D003236C
:1018A00076E0FB681B69B3F5804F08D1FB681B68C5
:1018B0007A89D2B242F00102D2B21A6157E0FB68D3
:1018C0001B687A8902F44072D211D2B262F00F0220
:1018D000D2B21A61F86830497A6800F0EBF8034632
:1018E000002B07D0FB689B6B042B01D101234FE039
:1018F00003234DE0FB681B687A89D2B21A61F8684D
:1019000026497A6800F0D6F80346002B07D0FB681A
:101910009B6B042B01D101233AE0032338E0FB68E1
:101920001B685B697B61FB681B689B697B617B69EA
:10193000FB681B68FA681268126842F480721A60C9
:10194000F8684FF0011100227B6800F029F8034687
:10195000002B01D003231BE0FB681B687A8902F48B
:101960004072D211D2B262F00E02D2B21A61F8689D
:101970000A497A6800F09EF80346002B07D0FB68FE
:101980009B6B042B01D1012302E0032300E0002321
:1019900018461837BD4680BD08000100020001004E
:1019A00080B586B000AFF860B9603B601346FB714C
:1019B00000237B61FFF718F97861FB79002B3AD19E
:1019C00018E03B68B3F1FF3F14D03B68002B07D011
:1019D000FFF70AF902467B69D21A3B689A4209D995
:1019E000FB68012283F83520FB68002283F834204D
:1019F00003235BE0BB681B0CDBB2012B0CD1FB6843
:101A00001B685B69DA43BB6813409BB2002B0CBFB9
:101A100000230123DBB20BE0FB681B689B69DA4300
:101A2000BB6813409BB2002B0CBF00230123DBB229
:101A3000002BC6D139E018E03B68B3F1FF3F14D06A
:101A40003B68002B07D0FFF7CFF802467B69D21A1C
:101A50003B689A4209D9FB68012283F83520FB686C
:101A6000002283F83420032320E0BB681B0CDBB288
:101A7000012B0CD1FB681B685B69DA43BB68134020
:101A80009BB2002B14BF00230123DBB20BE0FB68E9
:101A90001B689B69DA43BB6813409BB2002B14BFE1
:101AA00000230123DBB2002BC6D1002318461837D0
:101AB000BD4680BD80B586B000AFF860B9607A6081
:101AC00000237B61FFF790F8786139E0FB681B68C1
:101AD0005B6903F48063002B19D0FB681B68FA680C
:101AE0001268126842F400721A60FB681B686FF497
:101AF00080625A61FB6804229A63FB68012283F8C2
:101B00003520FB68002283F83420012339E07B680C
:101B1000B3F1FF3F14D07B68002B07D0FFF764F8C8
:101B200002467B69D21A7B689A4209D9FB68012276
:101B300083F83520FB68002283F83420032320E05B
:101B4000BB681B0CDBB2012B0CD1FB681B685B690B
:101B5000DA43BB6813409BB2002B0CBF0023012368
:101B6000DBB20BE0FB681B689B69DA43BB68134080
:101B70009BB2002B0CBF00230123DBB2002BA5D1AD
:101B8000002318461837BD4680BD00BF80B58EB013
:101B900000AF786000237B637B681B6803F0010360
:101BA000002B6AD0A24B9B6803F00C03042B0BD0D4
:101BB0009F4B9B6803F00C03082B12D19C4B5B6876
:101BC00003F48003002B0CD0994B1B6803F4003303
:101BD000002B05D07B685B68002B01D101230FE24D
:101BE0004BE0944B00221A70FEF7FEFF78630AE088
:101BF000FEF7FAFF02467B6BD21A41F288339A4213
:101C000001D90323FCE18A4B1B6803F40033002B4A
:101C1000EED1884B7A685268D2B21A707B685B68E2
:101C2000002B15D0FEF7E0FF78630AE0FEF7DCFF3B
:101C300002467B6BD21A41F288339A4201D90323C0
:101C4000DEE17B4B1B6803F40033002BEED014E085
:101C5000FEF7CAFF78630AE0FEF7C6FF02467B6B19
:101C6000D21A41F288339A4201D90323C8E1704B5A
:101C70001B6803F40033002BEED17B681B6803F074
:101C80000203002B77D06A4B9B6803F00C03002BF8
:101C90000BD0674B9B6803F00C03082B26D1644BD9
:101CA0005B6803F48003002B20D1614B1B6803F0B9
:101CB0000203002B05D07B68DB68012B01D00123D8
:101CC0009EE15B4B5A4A126822F0F8017A6810696B
:101CD000F8223A633A6B92FAA2F2FA62FA6AB2FA1C
:101CE00082F200FA02F20A431A6044E07B68DB6881
:101CF000002B2AD0504B01221A60FEF775FF786343
:101D000008E0FEF771FF02467B6BD31A642B01D902
:101D1000032375E1464B1B6803F00203002BF0D050
:101D2000434B434A126822F0F8017A681069F8229E
:101D3000BA62BA6A92FAA2F27A627A6AB2FA82F263
:101D400000FA02F20A431A6015E03B4B00221A60C7
:101D5000FEF74AFF786308E0FEF746FF02467B6B1A
:101D6000D31A642B01D903234AE1314B1B6803F0DA
:101D70000203002BF0D17B681B6803F00803002BE3
:101D800030D07B685B69002B16D02C4B01221A6087
:101D9000FEF72AFF786308E0FEF726FF02467B6B1A
:101DA000D31A642B01D903232AE1214B5B6F03F083
:101DB0000203002BF0D015E0204B00221A60FEF742
:101DC00013FF786308E0FEF70FFF02467B6BD31A20
:101DD000642B01D9032313E1154B5B6F03F002035E
:101DE000002BF0D17B681B6803F00403002B7BD031
:101DF0000F4B0F4A126C42F080521A640C4B1B6C52
:101E000003F08053BB60BB680D4B0D4A126842F46F
:101E100080721A60FEF7E8FE786313E0FEF7E4FED6
:101E200002467B6BD31A642B0CD90323E8E000BF76
:101E3000003802400238024000004742800E47420C
:101E400000700040704B1B6803F48073002BE5D0DA
:101E50006E4B00221A70FEF7C7FE78630AE0FEF7A9
:101E6000C3FE02467B6BD21A41F288339A4201D9F3
:101E70000323C5E0664B1B6F03F00203002BEED17A
:101E8000624B7A689268D2B21A707B689B68002BAA
:101E900015D0FEF7A9FE78630AE0FEF7A5FE02461C
:101EA0007B6BD21A41F288339A4201D90323A7E00F
:101EB000574B1B6F03F00203002BEED014E0FEF72C
:101EC00093FE78630AE0FEF78FFE02467B6BD21A20
:101ED00041F288339A4201D9032391E04C4B1B6FA6
:101EE00003F00203002BEED17B689B69002B00F00E
:101EF0008680474B9B6803F00C03082B7DD07B68E2
:101F00009B69022B62D1434B00221A60FEF76CFEE4
:101F1000786308E0FEF768FE02467B6BD31A642BF9
:101F200001D903236CE03A4B1B6803F00073002BCC
:101F3000F0D1374B7A68D1697A68126A11437A68AE
:101F4000506A47F6C0723A623A6A92FAA2F2FA61AD
:101F5000FA69B2FA82F200FA02F211437A68926ADE
:101F60005208501E4FF44032BA61BA6992FAA2F296
:101F70007A617A69B2FA82F200FA02F211437A685F
:101F8000D06A4FF070623A613A6992FAA2F2FA604E
:101F9000FA68B2FA82F200FA02F20A435A601D4B62
:101FA00001221A60FEF720FE786308E0FEF71CFEAF
:101FB00002467B6BD31A642B01D9032320E0144B18
:101FC0001B6803F00073002BF0D018E0114B0022C7
:101FD0001A60FEF709FE786308E0FEF705FE024688
:101FE0007B6BD31A642B01D9032309E0084B1B68D0
:101FF00003F00073002BF0D101E0012300E0002387
:1020000018463837BD4680BD007000407038024029
:10201000003802406000474280B584B000AF78606D
:1020200039600023FB60A24B1B6803F00F023B6882
:102030009A4280F0A8809E4B3A68D2B21A709C4BAC
:102040001B6803F00F023B689A4201D0012369E14B
:102050007B681B6803F00203002B08D0954B954A60
:10206000926822F0F0017A6892680A439A607B686D
:102070001B6803F00103002B00F031817B685B6873
:10208000012B07D18B4B1B6803F40033002B1AD1B3
:10209000012347E17B685B68022B03D07B685B68A8
:1020A000032B08D1834B1B6803F00073002B01D175
:1020B000012337E107E07F4B1B6803F00203002B8D
:1020C00001D101232EE17B4B7A4A926822F0030171
:1020D0007A6852680A439A60FEF786FDF8607B686A
:1020E0005B68012B12D10AE0FEF77EFD0246FB6819
:1020F000D21A41F288339A4201D9032312E16D4B7F
:102100009B6803F00C03042BEED1E8E07B685B686E
:10211000022B12D10AE0FEF767FD0246FB68D21AD5
:1021200041F288339A4201D90323FBE0614B9B685B
:1021300003F00C03082BEED1D1E07B685B68032B26
:102140000ED101E00323EDE05A4B9B68FEF74CFDF6
:102150000246FB68D21A41F288339A42F4D9F1E779
:102160000AE0FEF741FD0246FB68D21A41F28833CD
:102170009A4201D90323D5E04E4B9B6803F00C0330
:10218000002BEED1ABE07B681B6803F00203002B51
:1021900008D0484B474A926822F0F0017A6892686A
:1021A0000A439A607B681B6803F00103002B00F070
:1021B00089807B685B68012B07D13E4B1B6803F469
:1021C0000033002B1AD10123ACE07B685B68022B43
:1021D00003D07B685B68032B08D1364B1B6803F088
:1021E0000073002B01D101239CE007E0314B1B68F9
:1021F00003F00203002B01D1012393E02D4B2D4A64
:10220000926822F003017A6852680A439A60FEF7E6
:10221000EBFCF8607B685B68012B12D10AE0FEF7EB
:10222000E3FC0246FB68D21A41F288339A4201D994
:10223000032377E01F4B9B6803F00C03042BEED1C4
:1022400040E07B685B68022B12D10AE0FEF7CCFC11
:102250000246FB68D21A41F288339A4201D903231D
:1022600060E0144B9B6803F00C03082BEED129E0CF
:102270007B685B68032B0ED101E0032352E00D4B1A
:102280009B68FEF7B1FC0246FB68D21A41F2883324
:102290009A42F4D9F1E70FE0FEF7A6FC0246FB688C
:1022A000D21A41F288339A4206D903233AE000BF9A
:1022B000003C0240003802401C4B9B6803F00C03BA
:1022C000002BE9D11A4B3A68D2B21A70184B1B682E
:1022D00003F00F023B689A4201D0012322E07B68A1
:1022E0001B6803F00403002B08D0104B0F4A9268C0
:1022F00022F4E0517A68D2680A439A607B681B68CE
:1023000003F00803002B09D0084B084A926822F416
:1023100060417A681269D2000A439A600020FEF791
:1023200039FC002318461037BD4680BD00380240F6
:10233000003C024080B48BB000AF0023FB6100235F
:102340007B620023BB6100233B62364B9B6803F03A
:102350000C03042B06D0082B07D0002B58D1324B8E
:102360003B6258E0314B3B6255E02E4B5B6803F01B
:102370003F03FB612B4B5B6803F48003002B17D0FA
:102380002A4AFB69B2FBF3F2264B596847F6C07341
:102390000B4047F6C0717961796991FAA1F1396111
:1023A0003969B1FA81F1CB4003FB02F37B6216E09D
:1023B0001D4AFB69B2FBF3F21A4B596847F6C0732A
:1023C0000B4047F6C071F960F96891FAA1F1B96064
:1023D000B968B1FA81F1CB4003FB02F37B62114B88
:1023E0005B6803F440324FF440337B607B6893FAC0
:1023F000A3F33B603B68B3FA83F322FA03F30133A0
:102400005B00BB617A6ABB69B2FBF3F33B6202E03B
:10241000054B3B6200BF3B6A18462C37BD465DF852
:10242000047B7047003802400024F40000127A0058
:1024300080B582B000AFFFF77DFF02460C4B9B6872
:1024400003F0F001F0237B607B6893FAA3F33B6019
:102450003B68B3FA83F321FA03F30649CB5CDA4015
:10246000054B1A60044B1B6818460837BD4680BDF3
:1024700000380240B05300080000002080B582B050
:1024800000AFFFF7D5FF02460B4B9B6803F4E0510A
:102490004FF4E0537B607B6893FAA3F33B603B68A7
:1024A000B3FA83F321FA03F30449CB5C22FA03F372
:1024B00018460837BD4680BD00380240B0530008BA
:1024C00080B584B002AFFEF743FB00F059F800F08E
:1024D000DFF800F0B5F86B233B7102E06420FEF7F3
:1024E0008FFB3B1D4FF47A7200922148D0211A468F
:1024F0000123FEF727FF0346002BEFD11D4800F014
:10250000D5FE00233B7102E06420FEF779FB3B1D02
:102510004FF47A7200921648D0211A460123FEF732
:1025200011FF0346002BEFD1134800F0BFFE4FF41C
:102530007A70FEF765FB75233B713B1D4FF47A7291
:1025400000920B48D0211A460123FEF7FBFEFB1C2C
:102550004FF47A7200920648D0211A460123FEF702
:10256000A3FFFB780548194600F028FEDFE700BF0F
:102570006C01002068530008805300089C53000839
:1025800080B594B000AF2B4B2A4A126C42F08052B7
:102590001A64284B1B6C03F08053BB60BB68264B4E
:1025A000254A126842F440421A60234B1B6803F428
:1025B00040437B607B6801233B6201237B620223F3
:1025C000BB634FF48003FB6308233B644FF4A873A1
:1025D0007B640223BB640723FB6407F120031846D6
:1025E000FFF7D4FA0D23FB6002233B6100237B61DC
:1025F0004FF4A053BB614FF48053FB6107F10C0310
:1026000018460521FFF708FDFFF712FF02460B4BA6
:10261000A3FB02139B091846FEF7DEFB0420FEF71E
:10262000E7FB4FF0FF3000210022FEF7B9FB5037E7
:10263000BD4680BD0038024000700040D34D62109E
:1026400080B500AF0F4B104A1A600E4B0F4A5A600C
:102650000C4B00229A600B4B0022DA60094B4FF4BE
:1026600080421A61074B00225A61064B00229A6190
:10267000044B0022DA61034B00221A620148FEF784
:1026800087FD80BD6C010020005C0040A086010039
:1026900080B58EB000AF3F4B3E4A126B42F0040251
:1026A0001A633C4B1B6B03F004033B623B6A394BE0
:1026B000384A126B42F020021A63364B1B6B03F050
:1026C0002003FB61FB69334B324A126B42F08002FC
:1026D0001A63304B1B6B03F08003BB61BB692D4B4E
:1026E0002C4A126B42F001021A632A4B1B6B03F057
:1026F00001037B617B69274B264A126B42F0020281
:102700001A63244B1B6B03F002033B613B69214BB3
:10271000204A126B42F040021A631E4B1B6B03F0FF
:102720004003FB60FB681B4B1A4A126B42F010021D
:102730001A63184B1B6B03F01003BB60BB68154B8F
:10274000144A126B42F008021A63124B1B6B03F01F
:1027500008037B607B684FF480737B621223BB624B
:102760000123FB6202233B6304237B6307F1240301
:1027700009481946FEF764FB4FF400737B6204239B
:102780007B6307F1240305481946FEF759FB3837E8
:10279000BD4680BD003802400000024000080240F3
:1027A00080B500AF0720FEF7F1FA4FF0FF300021AF
:1027B0000022FEF7F5FA80BD80B588B000AF7860E2
:1027C0007B681A68194B9A422DD14FF40073FB6055
:1027D00012233B6101237B610023BB610423FB6166
:1027E00007F10C0312481946FEF72AFB4FF48073D9
:1027F000FB6012233B6101237B610023BB61042347
:10280000FB6107F10C030B481946FEF719FB0A4B55
:10281000094A126C42F400021A64074B1B6C03F461
:102820000003BB60BB682037BD4680BD005C004034
:1028300000080240000002400038024080B500AFAE
:10284000FEF7C4F9FEF7F0FA80BD00BF80B400AF18
:10285000164B164AD2F8882042F47002C3F888203A
:10286000134B134A126842F001021A60104B002207
:102870009A600F4A0E4B1B6823F0847323F4803355
:1028800013600B4B0B4A5A60094B094A126822F439
:1028900080221A60064B0022DA60044B4FF000627F
:1028A0009A60BD465DF8047B704700BF00ED00E014
:1028B0000038024010300024DFF834D0002103E05B
:1028C0000C4B5B58435004310B480C4B42189A4256
:1028D000F6D30B4A02E0002342F8043B094B9A422C
:1028E000F9D3FFF7B3FF00F011F8FFF7E9FD7047E8
:1028F000000003209055000800000020A0000020E8
:10290000A0000020AC010020FEE7000070B50E4BD7
:102910000E4DED1AAD1000241E46AC4204D056F800
:10292000242090470134F8E702F010FD084D094BD0
:10293000ED1AAD1000241E46AC4204D056F82420F7
:1029400090470134F8E770BD8855000888550008A5
:102950008C5500088855000802440346934202D073
:1029600003F8011BFAE770472DE9F04788B0002B08
:1029700014461D46109E1299139F05DA05F1004377
:102980001D4614462D2300E000230B70149B23F0FA
:10299000200ABAF1460F04D0BAF1450F03D101362F
:1029A00001E0032300E002238DE8C80006AB039397
:1029B00007AB049322462B4600F0FAFDBAF1470F0D
:1029C000804602D1119BDB0725D5BAF1460F08EBF3
:1029D00006090FD198F80030302B09D1204629463E
:1029E00000220023FEF75AF810B9C6F101063E6036
:1029F0003B6899442046294600220023FEF74EF802
:102A000008B1CDF81C90079B4B4504D25A1C079285
:102A100030221A70F7E7079BC8EB0302159B40466C
:102A20001A6008B0BDE8F087034673B5002903F8C3
:102A3000022B03DA49421A462D2401E01A462B24C0
:102A4000092944701ADD0DF106040A2691FBF6F5FA
:102A500006FB15113031092D234604F801192946CA
:102A6000F3DC05F1300103F8011D0DF107018B4284
:102A70000AD213F8011B02F8011BF6E730241A46AC
:102A8000214402F8024B5970101A02B070BD0000C8
:102A90002DE9F04F8FB00C4616461F46DDF86090CA
:102AA000054601F0B5FCD0F800A0504600F028FC27
:102AB00000230C93D9F800300990073323F0070363
:102AC000D3E9000103F1080294F81880C9F8002046
:102AD000C4E9120100F0F2FB0128D4E9120117D178
:102AE00000220023FDF7E4FF10B12D2384F84330CA
:102AF000904B914AB8F1470F8CBF914699460323FA
:102B00002361236823F0040323604FF0000B86E069
:102B100000F0D4FB236848B9884A8949B8F1470FC7
:102B20008CBF8946914603222261EBE76268511C03
:102B300028F0200B01D1062204E0BBF1470F02D19F
:102B40000AB9012262606068CDF8108043F48061A8
:102B50008DE803000DF12B0002900BA803900CA848
:102B60000590002021600690D4E912232846FFF743
:102B7000FBFEBBF1470F81460B9909D1C81C02DB54
:102B80006368994230DDA8F102085FFA88F802E034
:102B9000B8F1650F12D80139424604F150000B918B
:102BA000FFF742FF0C9A8318012A8346236102DC57
:102BB0002268D2072DD5013323612AE0B8F1660FD0
:102BC00014D10029636807DD216113B92268D00799
:102BD0001CD501330B4418E013B92268D20701D584
:102BE000023312E0012310E04FF067080C9A914283
:102BF00005DB23682161D80708D54B1C05E00029B7
:102C0000D4BFC1F10203012313442361A1654FF036
:102C1000000B9DF82B3013B12D2384F8433000971F
:102C2000284621460DAA334600F040F9013002D172
:102C30004FF0FF3036E123685A0504D42846314668
:102C40004A46236908E1B8F1650F40F2CB80D4E928
:102C5000120100220023FDF721FF00282AD0284678
:102C60003146384A0123B8470130E1D00C9B0B9A1A
:102C70009A4207DB2368D80704D423689B0700F136
:102C8000F880FDE0284631465246099BB84701309E
:102C9000CED04FF000080C9B013B9845EDDA28465A
:102CA000314604F11A020123B8470130C0D008F1BF
:102CB0000108F0E70B9B002B28DC28463146214A0F
:102CC0000123B8470130B3D00B9B23B90C9B13B938
:102CD0002368D907D1D5284631465246099BB847C3
:102CE0000130A5D04FF000080B9B5B429845284669
:102CF000314608DA04F11A020123B847013097D0AF
:102D000008F10108F0E74A460C9BA5E0A36D0C9A78
:102D10009A42B4BF93469B46BBF1000F02DC4FF0D2
:102D200000081CE0284631464A465B46B847013059
:102D3000F5D17DE7C8530008CC530008D0530008F4
:102D4000D4530008D85300082846314604F11A022B
:102D50000123B84701303FF46BAF08F10108A36DC0
:102D60002BEAEB729A1A9045EEDB09EB03080B9AFB
:102D70000C9B9A420FDB2368DA070CD40C9B0B9A4E
:102D80009944C8EB09099B1A9945A8BF9946B9F11E
:102D9000000F08DC0FE0284631465246099BB84731
:102DA0000130EBD144E72846314642464B46B8470E
:102DB00001303FF43DAF4FF000080AE028463146AD
:102DC00004F11A020123B84701303FF431AF08F192
:102DD00001080B9B0C9A29EAE971D31A5B1A9845F2
:102DE000ECDB4AE70C9A012A01DCDB0739D52846DF
:102DF00031464A460123B84701303FF419AF28460F
:102E000031465246099BB84701303FF411AFD4E92F
:102E1000120100220023FDF741FE10B14FF000081F
:102E200011E00C9B2846314609F10102013B1CE0F0
:102E30002846314604F11A020123B84701303FF415
:102E4000F7AE08F101080C9B013B9845F0DB2846E2
:102E5000314604F150025B46B84701307FF40DAFB4
:102E6000E6E6284631464A460123B8470130EED10E
:102E7000DEE64FF00008E2680D9BD31A984505DBAB
:102E8000E0680D9B9842B8BF18460BE028463146D3
:102E900004F119020123B84701303FF4C9AE08F12B
:102EA0000108E8E70FB0BDE8F08F00BF2DE9F84357
:102EB00015461F468A680B69DDF820809A42A8BF34
:102EC00013462B6091F8432006460C460AB10133A5
:102ED0002B602368990602D52B6802332B60236888
:102EE00013F006091DD094F843302268003318BF50
:102EF000012392061FD5E1185A1C302081F84300A7
:102F0000224494F8451082F84310023313E030460F
:102F1000394604F119020123C047013007D009F1F5
:102F20000109E2682B68D31A9945F0DBDBE74FF023
:102F3000FF30BDE8F8833046394604F14302C0470C
:102F40000130F4D023682A68E16803F00603042BFB
:102F500008BFC2EB01052369A2680CBF25EAE5752D
:102F600000259A42C4BFC3EB0203ED184FF00009DD
:102F7000A9450ADA3046394604F11A020123C0474E
:102F80000130D4D009F10109F2E70020BDE8F8834F
:102F90002DE9FF470E7E0C9D6E2E80460C46914615
:102FA0009A4601F1430000F0A58011D8632E22D08B
:102FB00009D8002E00F0B280582E40F0C28081F86F
:102FC00045607C4A4FE0642E1ED0692E1CD0B8E0CC
:102FD000732E00F0A78009D86F2E2BD0702E40F0F2
:102FE000B0800B6843F020030B6038E0752E21D0D1
:102FF000782E34D0A5E02B681A1D1B682A6001F1D9
:10300000420781F84230A0E022682B6812F0800F5E
:1030100003D01A1D2A601D6805E05706F9D51A1D50
:103020002A60B3F90050002D39DA2D236D4284F85F
:10303000433034E022682B6812F0800F03D01A1D51
:103040002A601D6804E05606F9D51A1D2A601D88FD
:10305000237E584A6F2B14BF0A2308231BE07823D2
:10306000554A84F845302368296813F0800F01F130
:1030700004062E6001D00D6802E05D06FBD50D88C8
:10308000D90744BF43F0200323601DB9236823F010
:10309000200323601023002184F8431001E0454AF7
:1030A0000A236668A660002E03DB216821F0040174
:1030B000216005B96EB104F14201B5FBF3F603FBE3
:1030C00016550F46555D01F801593546002EF4D1CD
:1030D00000E00746082B0AD12368DA0707D56268A3
:1030E00023699A4203DC302307F8013C013FC01BEF
:1030F00020612FE009682B68626911F0800F03D00E
:10310000191D29601B6808E011F0400F03F104014C
:1031100029601B6801D01A8000E01A600023236137
:10312000074617E02B681A1D2A601F68384600F012
:10313000E7F863682061984288BF23612369636070
:1031400005E004F1420784F8426001232361002373
:1031500084F84330CDF800A04046214603AA4B46F0
:10316000FFF7A4FE013002D14FF0FF301FE04046D0
:1031700049463A462369D0470130F5D023689B077A
:1031800005D4E068039B9842B8BF18460FE00025BD
:10319000E268039BD31A9D42F3DA4046494604F1A4
:1031A00019020123D0470130DED00135F0E704B029
:1031B000BDE8F087DA530008EB5300080FB40A4B60
:1031C00013B51C6824B1A36913B9204601F096F821
:1031D00005AB2046A168049A019301F02FFD02B0CF
:1031E000BDE8104004B070476400002070B50E4682
:1031F000054618B183690BB901F080F8AC68A38962
:10320000190701D5236983B92846214600F0D4F86F
:1032100058B14FF0FF3070BD002B0EDB236816F85D
:10322000012C1A70236801332360A36816F8012B60
:10323000013BA360002AEFD117E0A269934209DBAA
:10324000236816F8012C1A70236819780A29EAD124
:10325000284602E016F8011C2846224600F058F8DD
:10326000B0F1FF3250425041D2E7002B16DAA2698A
:10327000934208DB23680A221A7023681978914266
:1032800010D1284601E028460A21224600F040F8E5
:10329000B0F1FF335842584130B1BAE723680A22EF
:1032A0001A702368013323600A2070BD024B014667
:1032B0001868FFF79BBF00BF6400002031F0004397
:1032C00010B500D178B10C4AA3F5801494420CD902
:1032D000B3F5801F0BD3094A93420AD1D0F1010004
:1032E00038BF002010BD022010BD042010BD0320F7
:1032F00010BD002010BD00BFFFFFDF7F0000F07F8A
:10330000034613F8012B002AFBD1181A0138704725
:1033100070B50E461446054618B183690BB900F026
:10332000EDFF224B9C4201D16C6808E0204B9C428F
:1033300001D1AC6803E01F4B9C4208BFEC68A36955
:10334000A360A3891A0709D523693BB123692068C3
:10335000C01A63699842F6B20FDB08E0284621469E
:1033600000F02AF80028F1D04FF0FF3070BD284659
:10337000214600F059FF0028F6D1A368013BA36065
:1033800023685A1C22601E7063690130984204D081
:10339000A389DB0707D50A2E05D12846214600F070
:1033A00043FF0028E0D1304670BD00BF0C54000838
:1033B0002C5400084C540008324B70B51D6806466A
:1033C0000C4625B1AB6913B9284600F097FF2E4B88
:1033D0009C4201D16C6808E02C4B9C4201D1AC6846
:1033E00003E02B4B9C4208BFEC68A28993B21907FB
:1033F00020D4DD0605D4092342F040023360A281C7
:103400003BE0580712D5616B41B104F14403994286
:1034100002D0304601F050FB00236363A38923F000
:103420002403A3810023636023692360A38943F0FD
:103430000803A38123694BB9A38903F42073B3F56F
:10344000007F03D03046214600F0E6FFA38913F049
:10345000010205D00022A26062695242A26103E02B
:10346000990758BF6269A26022694AB903F08000D7
:1034700080B230B143F04003A3814FF0FF3070BD04
:10348000002070BD640000200C5400082C5400087B
:103490004C5400082DE9F74F03690C69A34280469C
:1034A000C0F28180013C01F11407A20000F1140573
:1034B0009146009257F824602A44019255F824203E
:1034C0000136B2FBF6F6B944002E3AD04FF0000EAA
:1034D0003A462846F34652F804CB03681FFA8CFAA2
:1034E0004FEA1C4C0AFB06EA0CFB06FC0CEB1A4CE0
:1034F0001FFA8AFACAEB0B0A4FEA1C4E1FFA8CFC21
:103500001AFA83FACCEB134C0CEB2A4C1FFA8AFA0A
:103510004AEA0C4A4A454FEA2C4B40F804ABDAD948
:10352000009AAB586BB9019A131FAB421A4602D8E6
:10353000C8F8104005E01268043B002AF8D1013CAD
:10354000F3E7404601F0DDF900282ADB01362B467F
:10355000002057F804CB1A681FFA8CF1411A4FEA81
:103560001C4C11FA82F1CCEB124202EB214289B2DF
:1035700010144F4541EA024243F8042BE9D955F8AB
:10358000242005EB840362B9043BAB421A4602D8FF
:10359000C8F8104005E01268043B002AF8D1013C4D
:1035A000F3E7304600E0002003B0BDE8F08F0000F4
:1035B0002DE9F04F456A9BB08246279CCDE9042354
:1035C00045B9102000F076FFCAF8240045608560F8
:1035D0000560C560DAF82430196861B15B684B603A
:1035E000012202FA03F38B60504600F0A9FFDAF8DB
:1035F000243000221A600599002905DA012321F000
:1036000000422360059201E000232360059F9C4A4D
:1036100027F000431B0D1B0593421DD12699049AE8
:1036200042F20F730B6042B9964B974AC7F31300EF
:1036300000280CBF1046184600E09248289F002F33
:1036400000F06885C37813B100F1080300E0C31CE3
:10365000289F3B6000F05EBDDDE904450022204666
:1036600029460023FDF71AFA804658B1269F012308
:103670003B60289F002F00F04A858448386001385D
:1036800000F048BD19AB009318AB01935046224699
:103690002B4601F0B1F9C7F30A5683465EB1C5F374
:1036A000130343F07F51204641F44011A6F2FF3648
:1036B000CDF854801CE0199B189E1E446FF4826361
:1036C0009E4209DB04991F3306F212409B1B21FA2C
:1036D00000F09F40384304E06D48049A801B02FAD2
:1036E00000F0FCF7FDFE0127A1F1F871013E1597EE
:1036F0000022684BFCF7B6FD5BA3D3E90023FCF77F
:1037000065FF5BA3D3E90023FCF7AEFD044630461A
:103710000D46FCF7F5FE58A3D3E90023FCF756FF4E
:1037200002460B4620462946FCF79EFD04460D4600
:10373000FDF7E6F929468146002220460023FDF7E1
:10374000B7F958B14846FCF7DBFE02460B46204667
:103750002946FDF7A3F908B909F1FF39B9F1160FA8
:103760000DD84D4B03EBC903D3E90001DDE9042378
:10377000FDF7BCF930B109F1FF39002700E001275E
:10378000149700E01490189B9E1B013E099604D5E7
:10379000774208970027099701E000270897B9F1B9
:1037A000000F07DB099FCDF844904F44099700278D
:1037B0000E9708E0089FC9EB07070897C9F10007B3
:1037C0000E9700271197249F092F28D8052FC4BFD3
:1037D000043F2497249FA7F10203CCBF00250125B5
:1037E000032B21D8DFE803F0060F0204012702E0D3
:1037F000012709E000270F97259F002F1EDD0B975B
:1038000007973B461FE000270F97259F4F440B97D4
:1038100001373B460797012BB8BF012313E0012571
:10382000002724970F9501E001270F974FF0FF37EE
:103830000B97079700271223259704E001270B9782
:1038400007973B462597DAF824400022626004215E
:1038500001F114029A4221D8626801326260490083
:10386000F6E700BFAFF3008061436F63A787D23FE5
:10387000B3C8608B288AC63FFB799F501344D33F5F
:103880000000F07F05540008FC530008D9530008DD
:10389000EEFBFFFF0000F83F7854000850466168D7
:1038A00000F019FEDAF82430079F20601B680A93A5
:1038B0000E2F00F26981002D00F066819DED047BE2
:1038C000B9F1000F8DED127B31DD804A09F00F0355
:1038D00002EBC30393ED007B4FEA2914E0068DED64
:1038E0000C7B0CD57A4BDDE91201D3E90823FCF7F8
:1038F00097FF04F00F04CDE90401032700E002273D
:10390000734D6CB1E10708D5DDE90C01D5E9002361
:10391000FCF75CFECDE90C01013764100835F0E7D7
:10392000DDE90401DDE90C23FCF77AFF1BE0C9F1B6
:103930000004DCB1654B664D04F00F0203EBC203DB
:10394000DDE91201D3E90023FCF740FE2411022730
:103950004CB1E20704D5D5E900230137FCF736FE68
:1039600064100835F4E7CDE9040100E0022714995A
:10397000E1B1DDE90445002220462946554BFDF71B
:1039800097F8C0B1079ADAB10B9B002B40F3F8808F
:1039900009F1FF3110910022204629464E4BFCF7D9
:1039A00015FE0137CDE904010B9A0CE0079BCDF819
:1039B00040900C9308E00799CDF840900C9103E0FB
:1039C000079ACDF840900C923846FCF799FDDDE956
:1039D0000423FCF7FBFD0022404BFCF745FC0C9F49
:1039E0000446A1F15075CFB900223D4BDDE9040139
:1039F000FCF738FC22462B4606460F46FDF776F8C4
:103A0000002840F04B82224605F1004330463946FB
:103A1000FDF74EF8002840F03782B1E00C9F2B4BA9
:103A20007A1E0F9F03EBC203002F5DD0D3E9002362
:103A300000202C49FCF7F4FE22462B46FCF712FC32
:103A4000DDE90467DDF8288004460D463946304636
:103A5000FDF756F80290FCF753FD02460B46304640
:103A60003946FCF7FFFBDDF808C00CF1300308F81D
:103A7000013B22462B4606460F46FDF719F8002863
:103A800040F0338332463B4600201249FCF7EAFB04
:103A900022462B46FDF70CF8002840F0D4800A9906
:103AA0000C9AC1EB080393426ADA204629460022A9
:103AB000094BFCF78BFD002204460D463046394683
:103AC000054BFCF783FD06460F46BFE77854000818
:103AD000405500080000F03F0000244000001C405A
:103AE000000014400000E03FD3E9000122462B46CD
:103AF000FCF76CFDDDF828800C9B0A9CCDE91601D3
:103B0000DDE90467984439463046FCF7F9FF05467D
:103B1000FCF7F6FC303502460B4630463946FCF7DA
:103B2000A1FB04F8015B444506460F4621D1002263
:103B3000874BDDE91601FCF797FB02460B46304642
:103B40003946FCF7D3FF00287DD1DDE9162300209C
:103B50007F49FCF787FB02460B4630463946FCF7A7
:103B6000A7FF68B1A046013C18F8013C302BF9D002
:103B7000BBE20022774BFCF729FD06460F46C2E761
:103B80009DED127B8DED047B199B002B7CDBB9F145
:103B90000E0F79DC704B259F03EBC903002FD3E98F
:103BA000004514DA079F002F11DC40F06F8120469A
:103BB00029460022694BFCF709FDDDE90423FCF7E7
:103BC0008BFF079D2C46002840F062816AE1DDE909
:103BD0000467DDF8288022462B4630463946FCF73C
:103BE0001FFEFCF78DFF0490FCF78AFC22462B4653
:103BF000FCF7ECFC02460B4630463946FCF732FB3C
:103C0000049F07F1300608F8016B0A9FC7EB08060E
:103C1000079FBE4202460B4629D1FCF725FB2246F0
:103C20002B4606460F46FCF761FF70B93046394611
:103C300022462B46FCF732FF002800F05882049FF2
:103C4000FB0702D453E2DDF8409043469846013B1F
:103C500018F8012C392A06D10A9F9F42F6D130224A
:103C600009F101093A701A7801321A703FE2002214
:103C7000384BFCF7ABFC0022002306460F46FCF74E
:103C80000DFF0028A7D032E20F9F002F30D0249FD5
:103C9000012F0ADC159F17B103F2334302E0189B92
:103CA000C3F136030E9D089E16E0079F7D1E0E9FF2
:103CB000AF4201DB7D1B06E00E9F0E95EB1B119FB3
:103CC0001F4411970025079F002F03DA089900234E
:103CD000CE1B01E0089E079B089F1F440897099F81
:103CE00050461F440121099700F0C8FC044602E039
:103CF0000E9D089E0F9C6EB1099F002F0ADD3B466A
:103D0000089FB342A8BF3346FF1A0897099FFF1ABE
:103D1000F61A09970E9F002F28DD0F9F07B3002D7D
:103D200010DD21462A46504600F04AFD04465A4618
:103D30002146504600F0ABFC59460746504600F07D
:103D4000FFFBBB460E9F7A1B10D0504659460AE037
:103D50000000E03F000024407854000800001440B8
:103D60000E9A5046594600F02BFD834650460121DD
:103D700000F084FC119F002F054605DD29465046C2
:103D80003A4600F01DFD0546249F012F12DC0499E0
:103D900081B9059AC2F3130373B922F000473F0DAE
:103DA0003F0557B1089F01370897099F01370997C9
:103DB000012702E0002700E0049F119941B12B691F
:103DC00005EB8303186900F00CFCC0F1200000E053
:103DD0000120099B034413F01F0308D0C3F1200204
:103DE000042A02DDC3F11C0302E008D013461C3391
:103DF000089A09991A44194408921E440991089A8C
:103E0000002A04DD5946504600F028FD8346099BF0
:103E1000002B05DD294650461A4600F01FFD0546D9
:103E20001499E1B15846294600F06BFD002816DAD6
:103E300059460A225046002300F099FB0F9A09F1D7
:103E4000FF3983464AB12146002350460A2200F03A
:103E50008EFB0B9B0793044601E00B990791079A91
:103E6000002A29DC249B022B26DD8AB9294605225B
:103E7000079B504600F07BFB05462946584600F05C
:103E800040FD00280EDC03E00C9D00E000252C46E0
:103E9000259FDDF828806FEA07090AE00C9DDDF810
:103EA00040902C460A9F312307F101083B7009F12D
:103EB00001092746002407E10F99002900F0BB8083
:103EC000002E05DD21465046324600F0C7FC044670
:103ED0009FB16168504600F0FEFA22690232064640
:103EE00004F10C0192000C3000F0ECFA504631461F
:103EF000012200F0B3FC074600E027460A9E29464F
:103F00005846FFF7C7FA214600F1300C8046584664
:103F1000CDF808C000F0F5FC3A4608902946504616
:103F200000F00CFDC368DDF808C002464BB911462D
:103F30005846039200F0E5FC039ADDF808C00346FA
:103F400000E00123504611460393CDF808C000F06D
:103F5000F7FA039BDDF808C063B9249A52B90499B3
:103F600001F0010232B9BCF1390F35D0089B002BAA
:103F700024DC25E00899002902DA002B08DC1FE088
:103F800023D1249A0ABB049901F00102EAB9F4E7AB
:103F9000594601225046CDF808C000F05FFC294682
:103FA000834600F0AEFC0028DDF808C003DC07D132
:103FB0001CF0010F04D0BCF1390F0DD008F1310C09
:103FC00006F1010886F800C07EE0002B06F101082A
:103FD00009DDBCF1390F03D13923337001365BE0C1
:103FE0000CF1010368E00A9A07994646C2EB080300
:103FF0008B4206F801CC3CD059460A220023504699
:1040000000F0B5FABC428346214650464FF00A0202
:104010004FF0000304D100F0AAFA044607466EE709
:1040200000F0A5FA394604460A225046002300F063
:104030009EFA074663E70F9E58462946FFF72AFA7D
:104040000A9F00F1300C07F806C0079F0136BE42F8
:1040500007DB0A9E012FACBFF61901362746002464
:1040600007E0594650460A22002300F080FA8346B2
:10407000E2E7594601225046CDF808C000F0EEFBB9
:104080002946834600F03DFC0028DDF808C003DC2B
:1040900014D11CF0010F11D016F8013C392BB04699
:1040A00006F1FF3607D10A99B142F5D1312309F162
:1040B00001090B7008E00133337005E0B046013EA2
:1040C00018F8013C302BF9D05046294600F038FA58
:1040D0006FB12CB1BC4203D05046214600F030FAFB
:1040E0005046394600F02CFA01E0DDF84090504689
:1040F000594600F025FA0023269F88F8003009F180
:1041000001033B60289F27B1C7F8008001E0034806
:1041100000E00A981BB0BDE8F08F00BFD85300083C
:104120008A892DE9F041054610070C4657D44B68A3
:10413000002B02DC0B6C002B18DDE66AB6B102F432
:104140008052002392B22F682B600AB1626D10E09A
:10415000216A28460123B047411C024609D12B6839
:104160003BB11D2B01D0162B46D12F600020BDE89E
:10417000F081A3895B0705D56368D21A636B0BB125
:10418000236CD21AE66A216A28460023B047461CEF
:10419000A28905D12B681BB11D2B01D0162B19D17B
:1041A00000236360D1042369236004D5421C01D13C
:1041B0002B6803B96065616B2F600029D6D004F1CC
:1041C0004403994202D0284600F076FC0020606348
:1041D000BDE8F08142F04002A281BDE8F0810E69A5
:1041E000002EC3D00B680E60C6EB030893070CBF0C
:1041F0004B6900238B6012E0A38943F04003A38145
:104200004FF0FF30BDE8F081A76A216A28463246A8
:104210004346B8470028EFDD0644C0EB0808B8F174
:10422000000FF1DCA2E7000038B50B6905460C462B
:10423000DBB118B183690BB900F060F80C4B9C42FC
:1042400001D16C6808E00B4B9C4201D1AC6803E0E3
:10425000094B9C4208BFEC68B4F90C302BB12846DE
:104260002146BDE83840FFF75BBF002038BD00BFE6
:104270000C5400082C5400084C540008014900F06C
:10428000A9B800BF314F0008002310B504460360F1
:104290004360836081814366C281036143618361BE
:1042A00019465C300822FEF757FB054B6362054B4D
:1042B000A362054BE362054B2462236310BD00BF7C
:1042C000654E0008874E0008BF4E0008E34E000808
:1042D00070B54B1E68255D430E4605F1740100F074
:1042E0002FFC044640B1002180E842000C30A06061
:1042F00005F16802FEF730FB204670BD836910B5FA
:10430000044633BB8364C3640365124B124A1B68C3
:104310008262984204BF0123836100F01FF860604D
:10432000204600F01BF8A060204600F017F804219A
:10433000E06000226068FFF7A7FFA0680921012262
:10434000FFF7A2FFE06812210222FFF79DFF012381
:10435000A36110BDC45300087D420008F8B51B4B93
:104360001E68B369074613B93046FFF7C7FF4836E2
:10437000B4687368013B04D4B4F90C5075B1683467
:10438000F8E733682BB938460421FFF7A1FF306006
:1043900008B13668ECE70C233B60F8BD4FF6FF73BD
:1043A000E3810123A38165662560A56065602561C1
:1043B0006561A56104F15C0029460822FEF7CCFA8C
:1043C0006563A563A564E5642046F8BDC453000891
:1043D000704770472DE9F8438046894600F148044C
:1043E000002694B1A5686768013F0CD4AB89012B06
:1043F00007D9B5F90E30013303D040462946C847E6
:1044000006436835F0E72468EBE73046BDE8F883FB
:104410000048704768000020F0B58B899E0791B076
:1044200005460C4626D4B1F90E10002909DAA389F5
:1044300013F0800F4FF0000714BF40264FF4806642
:104440000DE001AA00F0C6FD0028F0DB029F07F492
:104450007047B7F500514F424F414FF480662846F0
:10446000314600F06DFB60B9A3899A051DD443F075
:104470000203A38104F147032360236101236361E5
:1044800013E00B4BAB62A389206043F08003A38150
:10449000206166614FB12846B4F90E1000F0ACFD02
:1044A00018B1A38943F00103A38111B0F0BD00BF8F
:1044B0007D420008024B0146186800F041BB00BF76
:1044C0006400002010B50023934203D0CC5CC45498
:1044D0000133F9E710BD70B5456A04460E463DB993
:1044E0001020FFF7E7FF6062456085600560C560EA
:1044F000656AEB6843B1636ADA6852F8260078B1FE
:10450000016842F8261017E020460421212200F01D
:10451000C5FA636AE860DB68002BECD1002070BD4F
:10452000012101FA06F56A1D2046920000F0B6FA54
:104530000028F3D04660856000220261C26070BD31
:1045400070B5446A06460D463CB91020FFF7B2FF2D
:104550007062446084600460C4603DB1736A6A68DC
:10456000DB6853F82210296043F8225070BD2DE912
:10457000F0410C461E460D690746143100230868B9
:104580001FFA80FC000C02FB0C6C504300EB1C403B
:1045900001331FFA8CFC060CAB420CEB004041F8D7
:1045A000040BECDBD6B1A3689D4212DB6168384690
:1045B0000131FFF790FF2269023204F10C018046BD
:1045C00092000C30FFF77EFF21463846FFF7B8FF18
:1045D000444604EB850301355E6125612046BDE854
:1045E000F081030C1B0413B90004102300E0002326
:1045F00010F07F4F04BF0002083310F0704F04BF6B
:104600000001043310F0404F04BF80000233002843
:1046100003DB420003D5581C704718467047202022
:104620007047036813F007020BD0D90722D49A070A
:1046300003D55B080360012070479B0803600220DC
:10464000704799B209B91B0C102213F0FF0F04BF79
:104650001B0A0832190704BF1B090432990704BF5B
:104660009B080232D90702D45B0805D001320360EF
:1046700010467047002070472020704710B50C4648
:104680000121FFF728FF01224461026110BD2DE9DD
:10469000F04F16460A6933699A4285B00D4601DA31
:1046A00035460E46D5F810803769AB68696808EB67
:1046B00007049C42C8BF0131FFF70DFF00F114034E
:1046C00003EB840101911A46DDF804A0524503D2A0
:1046D000002142F8041BF7E705F1140106F114026A
:1046E00001EB880802EB8707CDF808800397039E4B
:1046F000B242154656D2B5F800C00432BCF1000FE4
:1047000025D00F461D46002657F8049BD5F800809B
:104710001FFA89FB1FFA88FA0CFB0BAA4FEA19490A
:104720004FEA1848B2440CFB098808EB1A481FFAF4
:104730008AFA4AEA084A4FEA1846DDF80880AB468A
:10474000B8454BF804AB01D95D46DDE76E6032F841
:10475000028CB8F1000F23D01E680F461D464FF0A3
:104760000009B7F800A0B5F802C008FB0ACCE14484
:10477000B6B2AC4646EA09464CF8046B57F8046BEF
:10478000B5F804A0360C08FB06A6DDF808A006EB79
:10479000194657454FEA164901D26546E1E76E6072
:1047A0000433A4E7019B002C03DC046105B0BDE8E1
:1047B000F08F53F8042D002AF7D1013CF3E70000F5
:1047C00012F003032DE9F04105460E46174607D0C7
:1047D000013B214A52F823200023FFF7C8FE06467A
:1047E000BF1035D06C6A3CB91020FFF763FE6862D9
:1047F000446084600460C460D5F82480D8F8084020
:104800007CB9284640F27121FFF738FF0023C8F831
:1048100008000446036004E07F1019D0206870B1DE
:104820000446FB07F8D5314622462846FFF72FFFFE
:10483000314680462846FFF783FE4646ECE7284689
:1048400021462246FFF723FF002320600360E7E7AD
:104850003046BDE8F08100BF685500082DE9F047FB
:104860000C464FEA621A236949680AEB0309A368F8
:104870008046154609F101079F4202DD01315B00C8
:10488000FAE74046FFF727FE0023064600F1140230
:10489000534504DA002142F823100133F8E7206978
:1048A0002AEAEA7104F1140315F01F0C02EB8101EE
:1048B00003EB800E16D0CCF1200A002518680A46BA
:1048C00000FA0CF0054342F8045B53F8045B7345AF
:1048D00025FA0AF501D21146F0E74D6045B109F11C
:1048E000020705E053F8042B41F8042B7345F9D374
:1048F000013F404637612146FFF722FE3046BDE8C2
:10490000F08702690B69D21A10B513D19C001430DC
:1049100001F114020319224453F8044D52F8041D06
:104920008C4203D008D24FF0FF3010BD9842F3D331
:10493000002010BD104610BD012010BD2DE9F0472C
:1049400006460C46084611461546FFF7DAFF071ED5
:1049500008D130463946FFF7BEFD012303614761A8
:10496000BDE8F08701DB002703E0234601272C4642
:104970001D4661683046FFF7AEFD22692B69C760AE
:10498000143405F1140606EB830A04EB820C00F1E3
:104990001403002154F8047B56F8049B11FA87F1A4
:1049A0001FFA89F54FEA1949C5EB0108C9EB17470A
:1049B00007EB28471FFA88F83914B24548EA074739
:1049C000254643F8047BE5D865450DD255F8044BE0
:1049D00011FA84F6240C04EB2644B6B2211446EAFC
:1049E000044443F8044BEFE753F8041D09B9013AB6
:1049F000FAE70261BDE8F0872DE9F74301211D4682
:104A0000DDF82890DDF82C801446FFF764FDC5F32F
:104A10000A570646C5F313030FB143F480130193FD
:104A2000D4B102A840F8084D6846FFF7FAFD009B94
:104A300048B1019AC0F1200102FA01F10B43C240D2
:104A40007361019200E07361019BB361002B0CBFA5
:104A500001240224346107E001A8FFF7E2FD0124EC
:104A6000019B7361346120303FB1A7F233470744A3
:104A7000C9F80070C0F135000AE006EB8403A0F22B
:104A80003240C9F800001869FFF7ABFDC0EB4410D5
:104A9000C8F80000304603B0BDE8F08338B502FB2B
:104AA00001F4214600F04CF8054618B100212246D9
:104AB000FDF752FF284638BD30B500293CD051F8EB
:104AC000042C0B1F1D49002AB8BF9B180A680C460E
:104AD00012B95A600B6030BD93420DD21968581854
:104AE000904203D15A581144426819605A602360B9
:104AF00030BD994203D80A4651680029F9D114689B
:104B000015199D420AD11B682344D01888421360AE
:104B100012D10868034413604B680CE002D90C23DF
:104B2000036030BD18681C188C4203D10C684968BA
:104B3000204418605960536030BD00BFC40000209D
:104B400070B5CD1C25F0030508350C2D38BF0C259C
:104B5000002D064603DA0C233360002070BD8D4221
:104B6000F9D3204B1C6818462146A1B10B685B1B8A
:104B70000ED40B2B03D90B60CC18CD501FE08C4208
:104B800002D1626802601AE04B6863600C4616E06E
:104B90000C464968E9E7144C23681BB9304600F01D
:104BA00051F920602946304600F04CF9431C01467B
:104BB000D1D0C41C24F0030484420AD1256004F13E
:104BC0000B00231D20F00700C31A09D05A42E250FF
:104BD00070BD3046611A00F035F90130EED1BAE708
:104BE00070BD00BFC4000020C00000209368013BDE
:104BF000002B10B5936005DA9469A34208DBCBB2B1
:104C00000A2B05D01368581C10601970C8B210BD6B
:104C1000BDE81040FEF77CBBF8B505460E461446CD
:104C2000D718BC4208D0284614F8011B3246FFF7BB
:104C3000DDFF431CF5D100E00020F8BD2DE9F04375
:104C40009DB00D4617460393064618B183690BB90C
:104C5000FFF754FB734B9D4201D1756808E0724B1E
:104C60009D4201D1B56803E0704B9D4208BFF568D5
:104C7000AB8918070AD52B6943B100230993202378
:104C80008DF8293030238DF82A3038E03046294617
:104C9000FEF792FB0028F0D04FF0FF30BFE0039A00
:104CA000111D12680391002A70DB079201342378EA
:104CB0002E2B7DD05E4F21783846032200F0BEF9BE
:104CC00030B1C71B049B4020B84003430493013418
:104CD000217858488DF828100622671C00F0AEF99C
:104CE000002800F08A80544B002B7DD1039B0733B2
:104CF00023F0070308330393099B434409933B467E
:104D00001C4613F8012B1AB9B4EB07090ED002E0C8
:104D1000252AF5D1F8E7304629463A464B46FFF7B3
:104D20007BFF013076D0099B4B4409932378002BFD
:104D300070D000234FF0FF3204930793059206933F
:104D40008DF853301A9304F101094C463B4F2178FA
:104D50003846052200F072F909F10109049B28B1D7
:104D6000C71B0120B84003430493EEE7D90644BFB4
:104D700020228DF853201A0744BF2B228DF8532090
:104D800022782A2A8BD0079B214605E0524243F025
:104D900002030792049389E70C4601312278303AE6
:104DA000092A03D80A2000FB0323F5E707937EE7CF
:104DB00063782A2B0AD1039B1A1D1B680392002BD0
:104DC00004F10204B8BF4FF0FF330BE0611C002375
:104DD0000C4601312278303A092A03D80A2000FB18
:104DE0000323F5E7059365E703AB0093304604A979
:104DF0002A46134BFDF74CFE07E003AB0093304609
:104E000004A92A460E4BFEF7C3F8B0F1FF3F8046D7
:104E10007FF472AFAB895B063FF53EAF09981DB0DA
:104E2000BDE8F0830C5400082C5400084C540008D2
:104E30007A5500087E550008912A0008745500082C
:104E4000194C000838B5064C002305460846236077
:104E500000F010FA431C02D1236803B12B6038BD67
:104E6000A801002010B50C46B1F90E1000F0F6F8BC
:104E7000002803DB636D0344636510BDA38923F43D
:104E80008053A38110BD2DE9F0411D468B89DB05C0
:104E900007460C46164605D5B1F90E10002202232E
:104EA00000F0BAF8A389B4F90E1023F48053A3815B
:104EB000384632462B46BDE8F04100F017B810B531
:104EC0000C46B1F90E1000F0A7F8431CA38903D1DA
:104ED00023F48053A38110BD43F48053A381606504
:104EE00010BDB1F90E1000F013B8000038B5074C32
:104EF000054600202060084611461A4600F067F972
:104F0000431C02D1236803B12B6038BDA8010020E7
:104F100038B5064C002305460846236000F086F9A4
:104F2000431C02D1236803B12B6038BDA8010020C7
:104F300070B505460C4609B9002070BD18B18369EB
:104F40000BB9FFF7DBF9204B9C4201D16C6808E0FC
:104F50001E4B9C4201D1AC6803E01D4B9C4208BF34
:104F6000EC68B4F90C30002BE6D028462146FFF758
:104F7000D7F8236B064633B12846216A98470028A4
:104F8000B8BF4FF0FF36A3891B0603D52846216919
:104F9000FFF792FD616B41B104F14403994202D0E5
:104FA0002846FFF789FD00236363A16C21B12846E1
:104FB000FFF782FD0023A364FFF70AFA0023A38111
:104FC000FFF707FA304670BD0C5400082C54000857
:104FD0004C54000838B5074C0023054608461146D6
:104FE000236000F082F9431C02D1236803B12B60D7
:104FF00038BD00BFA801002038B5064C0023054687
:105000000846236000F07FF9431C02D1236803B1F6
:105010002B6038BDA801002038B5074C054600209C
:105020002060084611461A4600F0BFF8431C02D122
:10503000236803B12B6038BDA801002010B5C9B2A8
:1050400002449042034606D01C788C4200F10100D5
:10505000F7D1184610BD002010BD000038B5074C30
:10506000054600202060084611461A4600F045F823
:10507000431C02D1236803B12B6038BDA801002076
:105080000A4B10B50446186818B183690BB9FFF7CD
:1050900035F9132C07D8064850F83430013302D0C4
:1050A00000EBC40010BD002010BD00BF6400002054
:1050B000CC000020F8B5044600F042F90027054670
:1050C000132630463946ABBE06462E602046F8BD54
:1050D000431C01D1FFF7EEBF704730B585B001AD7D
:1050E000019002910392062420462946ABBE044655
:1050F0002046FFF7EDFF05B030BD70B50E461546F2
:10510000FFF7BEFF044630B900F01AF90923036027
:105110004FF0FF3070BD006831462A46FFF7DDFFD3
:10512000431C03D06368281A0344636070BDF7B55D
:105130000C461646FFF7A4FF054618B900F000F923
:10514000092304E0022E06D900F0FAF816230360C2
:105150004FF0FF3027E0012E03D14368E41812D549
:10516000F2E7022E0FD102AE036846F8083D0C2785
:1051700038463146ABBE06463046FFF7A9FF431C12
:1051800018BF2418E4D02B686F468DE818000A2653
:1051900030463946ABBE06463046FFF799FF002839
:1051A000D6DB6C60204603B0F0BDFFF7C0BF30B562
:1051B00085B001AD01900291039205242046294655
:1051C000ABBE04462046FFF783FF05B030BD70B587
:1051D0000E461546FFF754FF044620B900F0B0F81C
:1051E0000923036011E0006831462A46FFF7DFFF1C
:1051F000031E0ADB6268E81A02449D42626006D11F
:105200000020BDE87040FFF755BF4FF0FF3070BD84
:1052100037B502AC022544F8040D28462146ABBE42
:1052200004462046FFF754FF03B030BD38B50546AD
:10523000FFF726FF044630B900F082F80923036027
:105240004FF0FF3038BD013D012D09D8084B9A6859
:105250001B699A4204D14FF0FF330360002038BD30
:105260002068FFF7D5FF10B94FF0FF33236038BD3A
:10527000CC00002008B50A4B1A680AB9094A1A601E
:105280001B686A461844904206D900F059F80C236E
:1052900003604FF0FF3008BD014A1060184608BD9A
:1052A000C8000020AC01002070B50C46FFF7E8FEF6
:1052B000054630B900F044F8092303604FF0FF3091
:1052C00070BD636843F4005363604FF48063E3622E
:1052D0000C2630462946ABBE05462846FFF7F8FEA9
:1052E000431C1CBF2061002070BD38B53C22054620
:1052F0000C4608460021FDF72FFB28462146BDE855
:105300003840FFF7D1BF70B5FFF7BAFE0925044654
:1053100018B900F015F805600FE028462146ABBE2D
:105320000446012C09D000F00BF800240546132692
:1053300030462146ABBE06462E60204670BD0000BA
:10534000014B1868704700BF64000020F8B500BF2B
:10535000F8BC08BC9E467047F8B500BFF8BC08BC56
:045360009E467047AE
:1053680057686F20616D20492074657374207761D8
:105378006B6520757000000057686F20616D2049CB
:1053880020656E61626C6520616C6C2073656E735C
:105398006F72730057686F20616D204920746573C0
:1053A800742025640A0000000000000001020304C4
:1053B8000102030406070809430000000400002056
:1053C800494E4600696E66004E414E006E616E00A1
:1053D800300030313233343536373839414243447E
:1053E80045460030313233343536373839616263F7
:1053F80064656600496E66696E697479004E614E2F
:105408000000000000000000000000000000000094
:105418000000000000000000000000000000000084
:105428000000000000000000000000000000000074
:105438000000000000000000000000000000000064
:105448000000000000000000000000000000000054
:105458000000000000000000000000000000000044
:1054680000000000504F534958002E000000000073
:10547800000000000000F03F000000000000244091
:1054880000000000000059400000000000408F406C
:10549800000000000088C34000000000006AF840D7
:1054A8000000000080842E4100000000D0126341FB
:1054B8000000000084D797410000000065CDCD4171
:1054C800000000205FA00242000000E87648374252
:1054D800000000A2941A6D42000040E59C30A242F0
:1054E8000000901EC4BCD64200003426F56B0C4365
:1054F8000080E03779C3414300A0D885573476430C
:1055080000C84E676DC1AB43003D9160E458E1436C
:10551800408CB5781DAF154450EFE2D6E41A4B44E1
:1055280092D54D06CFF08044F64AE1C7022DB54426
:10553800B49DD9794378EA440080E03779C3414380
:10554800176E05B5B5B89346F5F93FE9034F384DE1
:10555800321D30F94877825A3CBF737FDD4F15758D
:1055680005000000190000007D000000232D302BED
:105578002000686C4C0065666745464700000000DF
:0455880029020008EC
:04558C000102000810
:105590000024F400000000000C5400082C54000803
:1055A0004C54000800000000000000000000000053
:1055B00000000000C05300080000000000000000D0
:1055C00000000000000000000000000000000000DB
:1055D00000000000000000000000000000000000CB
:1055E00000000000000000000000000000000000BB
:1055F00000000000040000207254000879550008E3
:105600007955000879550008795500087955000842
:105610007955000879550008795500087955000832
:10562000FFFFFFFFFFFFFFFFFFFFFFFFFFFF000088
:04000005080028B90E
:00000001FF
